:020000001728BF
:100008007E14803120007F08FD000B1D0D280B1188
:100018005E222000111F1228111317217D082000CD
:10002800FF007E10090018287C22D4007D22D5000C
:100038002030840000308500223070227E1020009D
:1000480079292000CC01C51F3628C209C309C40973
:10005800C509C20A0319C30A0319C40A0319C50A40
:10006800CC01CC0AC91F4728C609C709C809C9094C
:10007800C60A0319C70A0319C80A0319C90A0130AD
:10008800CA004A08CC060030D0000030CF0000304B
:10009800CE000030CD00450844044304420403194F
:1000A8009028CB01CB0AC51B65280130C235C30D8A
:1000B800C40DC50D890B5A280130CA004A08CB0760
:1000C80057280130CD35CE0DCF0DD00D890B6628C0
:1000D80045084902031D7A2844084802031D7A2866
:1000E80043084702031D7A2842084602031C852854
:1000F8004208C6024308C73B4408C83B4508C93BF9
:100108004D140130C536C40CC30CC20C890B8628AB
:100118000130CB02031D65284C0803199E28CD0920
:10012800CE09CF09D009CD0A0319CE0A0319CF0A7F
:100138000319D00A5008C5004F08C4004E08C30070
:100148004D08C2000800072922008E100E11013048
:100158002000C6004608C000080022008E100E11BC
:100168002000C51B08004508031DC3284408031DBB
:10017800C32864304202E130433B031C08000230CC
:10018800C6004608C000080022008E140E15200084
:10019800C51BDA284508031DDF284408031DDF288E
:1001A8001C304202C730433B0318DF280130C60029
:1001B8004608C0000800C51B08004508031DEC28B8
:1001C800013042026E30433B0230443B031C0800BE
:1001D8000330C6004608C000080022008E100E1129
:1001E8002000C51B02294508031D08003D304202B6
:1001F8001730433B0230443B031808000230C60066
:100208004608C000080020004008003A0319A82842
:10021800013A0319B128033A0319C828013A031906
:10022800F128A828080021001C082000BD00210092
:100238001B082000BC003C08F0003D08F100F2015A
:10024800F3013C08F4003D08F500F601F701072228
:1002580073082000B9007208B8007108B700700868
:10026800B6005408FC000130FC35FF3E031D382958
:100278007C35203E860087013608810741313708E2
:10028800813D41313808813D41313908813D013096
:10029800BA070030BB3D3B08803AFC0080307C0246
:1002A800031D582911303A02031C08002000BA0126
:1002B800BB015508D3005408D2000130D4060030E1
:1002C800D5065408FC000130FC35FF3E031D6829A3
:1002D8007C35203E860087010030C03F0030C13F9A
:1002E800C23FC33FC101C10A0800362268224D221D
:1002F8007622D1218B17200041080319C729C10193
:100308000030C5000030C4000030C3001130C20006
:100318005208D1000130D135FF3E031D8F295135D8
:10032800203E86008701403FC600413FC700423F4C
:10033800C800433FC900252020004508AB004408F9
:10034800AA004308A9004208A8005208D1000130B9
:10035800D135FF3E031DAC295135203E860087016B
:100368000030C03F0030C13FC23FC33F0830203E8D
:1003780086008701403FC200413FC300423FC4009E
:10038800433FC500A72020003E083F0403197F29EA
:100398000130BE020030BF3B7F2921001D14200020
:1003A8001113210011170B172000D401D5010130BA
:1003B8005406D20000305506D3005208C20001305E
:1003C800C235FF3E031DE4294235203E86008701E1
:1003D8000030C03F0030C13FC23FC33F5408C20095
:1003E8000130C235FF3E031DF5294235203E860007
:1003F80087010030C03F0030C13FC23FC33FBA0150
:10040800BB01C10108000030FB000030FA000030D9
:10041800F9000030F800701C192A7408F8077508EC
:10042800F93D7608FA3D7708FB3D0130F435F50DC6
:10043800F60DF70D890B1A2A0130F336F20CF10C80
:10044800F00C890B212A7308720471047004031DCF
:100458000F2A7B08F3007A08F2007908F10078087F
:10046800F0000800FC302100990519088739703818
:100478009900991798010C1523000C1524000C11EC
:1004880021000C1623000C1621008E100E110E12DE
:10049800080021001E088F3950389E0003309E0442
:1004A8001D08833908389D009E17220097170330CE
:1004B800970408000630200095000130BE07003080
:1004C800BF3D21009D1408002100951295111508C3
:1004D800F839043895000800640080010131890B5F
:1004E800712A00340B110630200095008B16080085
:0404F8000134003497
:020000040001F9
:04000E00E4CFFFDC60
:00000001FF
